:020000040800F2
:10000000700600207D080008390700083B0700083B
:100010003F070008430700084707000800000000EA
:100020000000000000000000000000004B07000876
:100030004D070008000000004F07000851070008A6
:100040009708000897080008970800083919000861
:100050009708000897080008970800089708000804
:1000600097080008970800089708000897080008F4
:1000700097080008970800089708000897080008E4
:1000800097080008970800089708000897080008D4
:1000900097080008970800089708000897080008C4
:1000A00097080008970800089708000897080008B4
:1000B00097080008970800089708000897080008A4
:1000C0009708000897080008970800089708000894
:1000D00097080008711A0008391F000897080008DF
:1000E00097080008A9190008970800089708000851
:1000F0009708000897080008970800089708000864
:100100009708000897080008970800089708000853
:100110009708000897080008970800089708000843
:100120009708000897080008970800089708000833
:100130009708000897080008970800089708000823
:100140009708000897080008970800089708000813
:100150009708000897080008970800089708000803
:1001600097080008970800089708000897080008F3
:10017000970800089708000897080008000000008A
:100180009708000897080008DFF80CD007F0E0FC9B
:1001900000480047E1030008700600201CB5F7A3E3
:1001A0001022DC211E2001F001FA01201021CDE9EE
:1001B0000010F648C2780223DC21562001F043FAF1
:1001C00001201021CDE90010F04842780223DC2103
:1001D0006E2001F038FA01201021CDE90010EB4823
:1001E00082780223DC21862001F02DFAE8A3102278
:1001F000F0211E2001F0DAF901201021CDE90010D4
:10020000E84802780223F021462001F01CFA012080
:100210001021CDE90010E34842780223F0215E204E
:1002200001F011FA01201021CDE90010DD4882789B
:100230000223F021762001F006FADBA310224FF40E
:1002400082711E2001F0B2F9D0480078401EDA49D0
:1002500051F8203010224FF48271462001F0A6F9A7
:100260001CBD7CB505460C46322094FBF0F100FB2A
:10027000114050B94FF6FF701F21D0A31822CDE9CD
:100280000010B921142001F0B1F9D24800780128FA
:1002900003D0D048007802285FD1CE4800780128EA
:1002A0002BD1062D28D2DFE805F003090F151B21FD
:1002B000B648C078401CB549C8701DE0B3484078C6
:1002C000401CB249487017E0B0488078401CAF49E4
:1002D000887011E0B3480078401CB24908700BE008
:1002E000B0484078401CAF49487005E0AD48807880
:1002F000401CAC49887000BF00BFB6480078022897
:100300002BD1062D28D2DFE805F003090F151B219C
:100310009E48C078401E9D49C8701DE09B484078AB
:10032000401E9A49487017E098488078401E9749C7
:10033000887011E09B480078401E9A4908700BE0D5
:1003400098484078401E9749487005E09548807865
:10035000401E9449887000BF00BF962C01D1FFF762
:100360001DFF062D3AD2DFE805F0030C151E2730DD
:10037000312C05D198A31022DC21562001F016F96A
:100380002CE0312C05D194A31022DC216E2001F049
:100390000DF923E0312C05D18FA31022DC2186201A
:1003A00001F004F91AE0312C05D18CA31022F021C0
:1003B000462001F0FBF811E0312C05D186A3102274
:1003C000F0215E2001F0F2F808E0312C05D178A38D
:1003D0001022F021762001F0E9F800BF00BF7CBDBB
:1003E0000EB50027002501F0B4FE072302220821E4
:1003F0004FF4A87007F0ADFA07F00AFB00F050FACE
:1004000000F07CFA00F015FE01F030FA0021042023
:1004100001F077FA4FF4165001F0F2FA4FF416504B
:1004200001F05CFD01F09CFB4FF47A7001F0E9FEF5
:1004300001F0D4FC4FF478406949088069A3182280
:100440000A21084601F0B2F86BA3182228210A20DD
:1004500001F0ACF86CA3102264211E2001F0A6F874
:100460006FA3102278211E2001F0A0F872A31022A1
:100470008C211E2001F09AF875A31022A0211E20C5
:1004800001F094F8002001F0E4F9FFF787FE3FE166
:10049000002000F054FA681CC5B217B1012F09D131
:1004A00030E070480078042805D16F480088FA28A9
:1004B00001DD0127F9E0142095FBF0F100FB11505C
:1004C000F8B9002001F0C5F9FFF768FE67496848F0
:1004D00001F0D3FCA8B901201821CDE9001064482F
:1004E000027802230A21A02001F0ADF80120182192
:1004F000CDE900105D48027802232821732001F025
:10050000A2F8D2E033480078032804D1601CC4B2BA
:10051000052C00DD002429462046FFF7A2FE2D48C9
:100520000078042829D1FFF739FE40221D48807841
:100530001C494978DFF86CC0CDE9010200919CF8B4
:100540000030DFF848C09CF802209CF801109CF8AD
:10055000030001F050F9002001F07BF9FFF71EFEC7
:100560004FF6FF701F2143A31822CDE90010B921D7
:10057000142001F03BF800268BE095E0446174659F
:100580003A323020202D20202D202000580000203D
:1005900054696D653A20203A20203A2020202020FE
:1005A00000000000140100205765656B3A202020F0
:1005B000202020202000000000000020506C6561F9
:1005C00073652053657420202020202020202020C7
:1005D000000000004000002020200000202020001B
:1005E0004600002074656D70656172747572653ABD
:1005F000202020430000000068756D6964697479EB
:100600003A202025000000004B455933204C6F6EE6
:1006100067203A41646A7573742074696D650000DF
:10062000202020202053686F72743A41646A7573E9
:1006300074204F4B000000004B4559303A20562B98
:100640002B20204B4559313A20562D2D000000001B
:100650004B4559323A205269676874204D6F766570
:10066000000000004400002042000020360000206E
:100670003400002041646A757374204F4B202020A1
:1006800020202020202020000A2007F0EBF9701CF9
:10069000C6B2642EF8DB1FA31822B921142000F083
:1006A00085FF0024002700E000BF00BF052007F001
:1006B000D9F91E48007878B11C4890F800800A20CB
:1006C00001F09FFD19480078804504D101F0ECF954
:1006D00000201649087000BF1548007878B114480A
:1006E00090F800800A2001F08CFD114800788045C8
:1006F00004D101F03DFC00200D49087000BF0D48F9
:100700000088012804D101F0A5FA002009490880D9
:10071000BEE60000202020202020202020202020B5
:100720002020202020202020000000005C0000204D
:10073000900000205E000020704700BFFEE700BF71
:10074000FEE700BFFEE700BFFEE770477047704757
:1007500010B501F035FD10BD3F48006840F4700051
:100760003D4908603D48006840F001003B49086091
:1007700000203A4908310860384800683849084084
:10078000364908603748091D0860081F006820F4D2
:100790008020091F0860002030490C3108604FF0AC
:1007A00000602D4980390860704770B50020002234
:1007B000022300240221294D08352D6805F00C0084
:1007C00020B1042806D0082834D107E0264D274E52
:1007D000356033E0264D254E35602FE01F4D2D1D31
:1007E0002D68C5F380541D4D2D1D2D6805F03F016A
:1007F00054B11F4DB5FBF1F5184E361D3668C6F3E2
:10080000881605FB06F209E0174DB5FBF1F5134E0E
:10081000361D3668C6F3881605FB06F20F4D2D1DF2
:100820002D68C5F301456D1C6B00B2FBF3F50F4E4F
:10083000356003E00C4D0D4E356000BF00BF074D25
:1008400008352D68C5F303150A4E705D074D2D68F8
:10085000C540064E356070BD88ED00E000380240AE
:10086000FFFFF6FE103000240024F4003C000020BE
:1008700000127A00C47B0008704770470648804722
:1008800006480047FEE7FEE7FEE7FEE7FEE7FEE775
:10089000FEE7FEE7FEE7FEE75907000889010008CA
:1008A00000B587B000BF002001901248006840F0FA
:1008B0004000104908600846006800F040000190C0
:1008C00000BF00BF4FF4C04002900120039004908D
:1008D0000320059002A9084801F0FCFE0122510303
:1008E000054802F086F801229103034802F081F8DE
:1008F00007B000BD303802400018024000B587B094
:1009000000BF002001903E48006840F020003C49B4
:1009100008600846006800F02000019000BF00BF9A
:100920004FF4707002900020039001200490032087
:10093000059002A9334801F0CDFE07B000BD0021AB
:10094000314A11703149096861B13049091D09689E
:1009500041B12E490831096821B12C490C3109688F
:1009600000293CD12949096819B90121284A117087
:1009700016E02649091D096819B90221244A117097
:100980000EE022490831096819B90321204A117083
:1009900006E01E490C31096811B904211C4A117086
:1009A0001B4909781B4A1278914210D11A490988CB
:1009B000491C194A118016490978184A1170E8B97A
:1009C00015490988012919DD0021117016E000215F
:1009D000114A11800E4909780E4A11700EE00E4935
:1009E0000988022903DD0A490978074A11700021A4
:1009F000084A1170084A1180084A117070470000B7
:100A00003038024000140240410000201882424267
:100A1000440000204500002042000020400000204B
:100A2000F64A1080921C1180704710B50446F348B6
:100A30000480042006F0F4FFF048801C008810BDFC
:100A400000BF011EA0F10102D0B2FAD17047EC48FC
:100A50000088EA49088070472920E84908807047E3
:100A60002820E6490880704730B58418641EA2B279
:100A7000CC18641EA3B2E34C24786CBBE24C2488EF
:100A800041F66315AC4227D1E04C2488A41A241AFD
:100A9000A0B2CC18641EA3B2DD4C2488D74D2C80A4
:100AA0000412AD1C2C80C4B22C808418641EC4F3C4
:100AB0000F242C808418641EE4B22C80D54C24882A
:100AC000AD1E2C800C12AD1C2C80CCB22C801C12C4
:100AD0002C80DCB22C8019E0CD4C2488C74D2C80B2
:100AE0000412AD1C2C80C4B22C8014122C80D4B201
:100AF0002C80C84C2488AD1E2C800C12AD1C2C8080
:100B0000CCB22C801C122C80DCB22C8030BD70B595
:100B1000054600240026BB480078012805D1BA48C4
:100B2000008849F24131884208D0B6480078F0B9CF
:100B3000B548008841F66311884218D1082D15D2B6
:100B4000DFE805F00406080A0C0E101206250DE079
:100B500007250BE0042509E0052507E0012505E050
:100B6000002503E0032501E0022500BF00BF082D9A
:100B70001CD2DFE805F00406090C0F12151800BF9F
:100B800014E044F0800411E044F040040EE044F02E
:100B9000C0040BE044F0200408E044F0600405E0E9
:100BA00044F0A00402E044F0E00400BF00BF362699
:100BB0009548008849F24131884201D144F0080447
:100BC00021463046FFF72CFF934803888F48028860
:100BD00000210846FFF748FF70BD10B504468CBBE6
:100BE0000020884908708848008849F241318842CD
:100BF00010D12C20824908802A20854908802B208A
:100C000084490880F020814908804FF4A07082490F
:100C1000088049E07C48008841F66311884243D14E
:100C20002C20774908802B20794908802A2079498F
:100C300008804FF4F070754908804FF44870764989
:100C4000088031E0FFE701206E4908706E48008897
:100C500049F24131884210D12C20694908802A206C
:100C60006B4908802B206B4908804FF4A0706749BE
:100C70000880F0206849088016E06348008841F643
:100C80006311884210D12C205D4908802A206049D8
:100C900008802B205F4908804FF448705B4908802A
:100CA0004FF4F0705C4908800020FFF730FF10BD62
:100CB000554A128849F241339A4212D1544A128855
:100CC0004E4B1A8002129B1C1A80C2B21A80514AE3
:100CD00012889B1E1A800A129B1C1A80CAB21A80A4
:100CE00042E0494A128841F663139A423CD1454A90
:100CF00012788AB9454A1288521E121A90B2444A92
:100D000012883E4B1A8000229B1C1A801A80021205
:100D10001A80C2B21A8013E03D4A1288374B1A80FB
:100D200002129B1C1A80C2B21A80384A1288521EC4
:100D3000C2F30F221A80354A1278521ED2B21A809C
:100D4000344A12882D4B1A800A129B1C1A80CAB290
:100D50001A80314A1288521EC2F30F221A802E4A7C
:100D60001278521ED2B21A8070473EB504460D4624
:100D7000002002900190009029462046FFF798FF3E
:100D80002E201E490880881C008802901E4800887A
:100D900041F66311884202D1BDF808003EBD022031
:100DA000FFF74EFE1548801C00880090BDF8080033
:100DB000C0B20190BDF804004FF6FF7101EA0020B7
:100DC0000190BDF80800C012C002BDF804108912DD
:100DD00040EA4110BDF8001040EAE120DEE730B5FE
:100DE00004460D4629462046FFF762FFFFF72FFE17
:100DF0000A4800880149891C088030BDFE1F006C2C
:100E0000520000204C0000204A0000204E0000202C
:100E10005400002056000020500000204600002012
:100E200070B505460E46144631462846FFF7D7FFF3
:100E3000FE480088FE490880881C048070BDBE21E1
:100E4000FB4A11800521921C118011460880012166
:100E50001180FF211180002111801180704770B531
:100E6000044600250026F3480088F349098800FB62
:100E700001F600210846FFF71BFFFFF7E8FD00BF62
:100E800003E0EB48801C04806D1CB542F9D370BDB3
:100E900010B586B0044600BF00200090E748006807
:100EA00040F00100E54908600846006800F00100D4
:100EB000009000BF00BF00BF00200090DF4808384E
:100EC000006840F00800DD490839086008460068FD
:100ED00000F00800009000BF00BF00BF002000909D
:100EE0000846006840F0100008600846006800F0FE
:100EF0001000009000BF00BF00BF00200090084617
:100F0000006840F0200008600846006800F02000FB
:100F1000009000BF00BF00BF00200090084600689E
:100F200040F0400008600846006800F04000009073
:100F300000BF00BF4CF233700190022002900120EC
:100F40000390032004900C20059001A9BC4801F0F7
:100F5000C1FB4FF68070019001A9BA4801F0BAFBBD
:100F60000420019001A9B84801F0B4FB4FF480506F
:100F7000019001A9B44801F0ADFB06B010BD00B569
:100F80008FB04FF02040B1490860B148486006205A
:100F900088600021AD48C1600161102141610021DC
:100FA0008161C16141624FF4805181620021C1625F
:100FB0004FF4804101630021416381634FF480114C
:100FC000C1630F200890002009903C200A90002067
:100FD0000E900490092001900020029008200390B8
:100FE0000020079001AA08A9984803F00EFB3220C0
:100FF00006F038FD0FB000BDD3218D4A1180911C41
:101000000888088808884FF6FF7101EA0020911CC3
:10101000098808437047A121854A1180911C0888DE
:1010200008884FF6FF7101EA0020911C09880843E7
:10103000704700B587B000BF002001907F48083896
:10104000006840F020007D490839086008460068C3
:1010500000F02000019000BF00BF081502900120A1
:10106000039004900320059002A97A4801F032FB16
:10107000FFF785FFFFF7C0FF774908800846008823
:1010800049F2413188420DD0FFF7C5FF724908800F
:101090000846008845F26171884203D141F6631029
:1010A0006D4908806C48008849F2413188421DD161
:1010B00067481830006820F00F004FF02041C1F859
:1010C0001C010846D0F81C0120F47060C1F81C0116
:1010D0000846D0F81C0140F00300C1F81C01084686
:1010E000D0F81C0140F40070C1F81C015A48008877
:1010F00049F2413188427DD1CF204D4908800020FE
:10110000891C0880C120088030200880ED20891EBD
:1011100008806420891C0880032008801220088031
:1011200081200880E820891E08808520891C08808D
:10113000102008807A200880CB20891E0880392062
:10114000891C08802C20088000200880342008801A
:1011500002200880F720891E08802020891C088032
:10116000EA20891E08800020891C08800880C02091
:10117000891E08801B20891C0880C120891E0880C8
:101180000120891C0880C520891E08803020891C08
:1011900008800880C720891E0880B720891C088025
:1011A0003620891E08804820891C08803A20891E24
:1011B00008805520891C0880B120891E08800020E5
:1011C000891C08801A200880B620891E08800A2001
:1011D000891C0880A2200880F220891E0880002037
:1011E000891C08802620891E08800120891C08800F
:1011F000E02000E079E0891E08800F20891C08802B
:101200002A20088028200880082008800E200880D6
:101210000820088054200880A920088043200880E6
:101220000A2008800F200880002017E052000020CC
:10123000FE1F006C4E000020500000203838024095
:10124000000C02400010024000180240A4000020E0
:10125000040100A0001402404A0000200880088019
:1012600008800880E120891E08800020891C0880F1
:10127000152008801720088007200880112008808A
:10128000062008802B200880562008803C200880FB
:1012900005200880102008800F2008803F2008804B
:1012A00008800F2008802B20891E08800020891CC0
:1012B00008800880012008803F2008802A20891E9D
:1012C00008800020891C088008800880EF200880A2
:1012D0001120891E0880782006F0C4FB2920FB49D4
:1012E00008800120FA49086098E0FA48008841F631
:1012F00063118842F8D1E220F44908801D20891C3E
:1013000008800220088004200880642006F088FB02
:10131000E020EE4908800120891C08800A2006F0A0
:10132000A1FBE020E94908800320891C08800C20EB
:1013300006F098FB0120E54908800A2006F092FBA0
:10134000E620E24908802F20891C0880FF200880C1
:101350000880B020891E08802020891C0880002079
:1013600008800320088040F21F3008800120088098
:1013700040F2DF10088000200880B420891E088019
:101380000420891C088040F21F400880002008804B
:101390002E20088000200880088008800880B62061
:1013A000891E08800220891C08804FF40370088081
:1013B0000020088017200880152008800020088061
:1013C0000880F020891E08800320891C08802920BD
:1013D000891E0880D02008800020891C0880BE203B
:1013E000891E08800520891C0880FE2008800120B5
:1013F00008800020088008800880B820891E0880A6
:101400000320891C088001200880BA20891E0880DA
:101410000120891C0880FF20FFF711FD0020FFF745
:10142000DCFB4FF6FF70FFF71AFD07B000BD2DE99A
:10143000F04F05460E4617469846DDF824A04FF0BB
:10144000000B781B401C1FFA80FB344614E0214639
:101450002846FFF72DFCFFF7FAFA4FF0000907E0E6
:101460009A48801CA0F800A009F101001FFA80F939
:10147000D945F5DB601C84B24445E8DDBDE8F08F5A
:101480002DE9F84F07460D4690469946DDF828B0FD
:10149000A8EB0700401C80B20090A9EB0500401C9F
:1014A0001FFA80FA002416E0281981B23846FFF7A7
:1014B000FFFBFFF7CCFA002608E004FB0A603BF8CC
:1014C00010008249891C0880701C86B200988642F0
:1014D000F3DB601C84B25445E6DBBDE8F88F2DE9F0
:1014E000FF4F074616461C46BB460C2C01D19846BA
:1014F0000AE0102C01D1A04606E0182C02D14FF0D2
:10150000300801E0BDE8FF8FA6F12000C6B200253B
:1015100048E00C2C07D106EB46006F4901EB800038
:1015200010F8059010E0102C05D16C4800EB061067
:1015300010F8059008E0182C06D106EB4600684923
:1015400001EB001010F805904FF0000A24E009F0BC
:10155000010030B16348028838460199FFF760FC0A
:1015600005E06148028838460199FFF759FC4FEAC7
:101570006909781C87B2A7EB0B0104EBD472B1EBBD
:10158000620F05D15F460198401C80B2019006E0D1
:101590000AF1010000F0FF0ABAF1080FD7DB00BF23
:1015A000681CC5B24545B4DB00BFABE7F0B50646E5
:1015B0000F4615461C4611E022782B463946304628
:1015C000FFF78DFF284605EBD07106EB61018EB267
:1015D00046480088864200DB06E0641C207820280C
:1015E00002DB20787E28E7DD00BFF0BD2DE9F04F5B
:1015F00004460D4616461F46DDE909893948B0F80C
:1016000000A03948B0F800B03648A0F8008036484D
:10161000A0F800903B46324629462046FFF7C6FF19
:101620003048A0F800A03048A0F800B0BDE8F08F26
:1016300010B50246012000E050430B1EA1F1010449
:10164000E1B2F9D110BD2DE9FF4F81B007469046B8
:101650001E460E9CC3464FF0000906E00A20BBFB65
:10166000F0FB09F1010000F0FF09BBF1000FF5D11B
:10167000B14508DD1EA3224638460299FFF796FFC2
:1016800005B0BDE8F08F002553E0A6EB0900A842A5
:1016900032DD0F9860B104EBD471491001FB057184
:1016A00088B22346302200940299FFF718FF3EE0EB
:1016B00004EBD471491001FB057188B22346202246
:1016C00000940299FFF70BFF31E00000FE1F006C51
:1016D000A88242424A000020DC7B000850800008BB
:1016E0004086000846000020480000204E000020F0
:1016F0004552524F52000000701B401EC1B20A20DA
:10170000FFF796FFB8FBF0F00A21B0FBF1F201FB06
:10171000120A04EBD471491001FB057188B20AF179
:101720003001CAB2234600940299FFF7D8FE681C24
:10173000C5B2B542A9DB00BFA2E72DE9FF4F82B0D9
:1017400004460D461646DDE91189109F0E48B0F893
:1017500000A00E48B0F800B00B48A0F800800B487D
:10176000A0F800900F98CDE90007324629462046A0
:10177000059BFFF768FF0448A0F800A00348A0F805
:1017800000B006B0BDE8F08F460000204800002001
:10179000F0B504460B46154604F16400C1B2084694
:1017A000CE1701EB967601EBA602072092FBF0F62E
:1017B00000FB162082B25619581E824F385C304406
:1017C00082B2CE1701EB9676B610A1EB86061EB953
:1017D000032B01DA501E82B2072092FBF0F600FBC9
:1017E000162008B90720F0BD072092FBF0F600FB99
:1017F0001620C0B2F7E72DE9F04786B004460D4643
:1018000016461F46DDE90F9ADDF838808DF8166020
:101810008DF81550324629462046FFF7B9FF8DF85E
:1018200014008DF81740002205A9674803F0ADFAAF
:101830008DF800708DF801808DF802908DF803A06E
:1018400000226946604803F0D3F9002006B0BDE8E5
:10185000F08710B5044622465C495B4803F01BFB49
:1018600022465B49584803F062FA10BD0EB559484C
:1018700055490860002048607F2153488160FF215E
:10188000C160002101614161816103F0BAF808B1D2
:1018900002200EBD4020002100910C230622CDE93C
:1018A000011009211420FFF7A6FF0020F1E710B571
:1018B00092B0044600BF002001904748006840F005
:1018C0008050454908600846006800F0805001904B
:1018D00000BF00BF01F0E4F80420069000200C9047
:1018E0000120089006A801F0BFF902200290C00173
:1018F000059002A801F02CFE01203849086012B0C2
:1019000010BD70B504460D462F480068C06800F051
:10191000800060F490602C490968C860224629461E
:10192000294804F00BF902221146032000F00CFDB7
:10193000032000F047FD70BD10B5234804F0EEF918
:1019400010BD2749096809B9012100E00021244A96
:1019500011607047F0B58BB004460D4616461F4621
:101960008DF804508DF805608DF806700020029007
:101970008DF8070006904FF0706007904FF08040A0
:1019800008908DF8244080150A90002201A90E4885
:1019900003F08BFB02220121292000F0D5FC292035
:1019A00000F010FD0BB0F0BD10B5074803F04AFD84
:1019B00010BD10B504460BA006F0DCF801200F495D
:1019C000088010BD10980008F40000205800002086
:1019D0001401002000280040403802403C0E4742DD
:1019E000B8024342C4D6D6D3B5BDC1CBA3ACBFEC7D
:1019F000C6F0C0B4C9CFB0E0000000005E00002017
:101A000010B5044633483449086008464460002154
:101A10008160C160016181610C21416104F01BFEA4
:101A200001222E492C4805F07DF810BD00BF294A3F
:101A3000126802F04002002AF9D0C2B2254B5A6067
:101A4000704700BF2349096801F040010029F9D01F
:101A500020494860704710B503460C46002200BF7D
:101A6000985CFFF7EEFF501C82B2A242F8DB10BD7B
:101A700010B50024184805F0FCFC00BF01E0641C10
:101A800000BF154805F047FE2028F8D100BF00240C
:101A900001E0641C00BF012210490F4805F042F824
:101AA0000028F6D100BF10BD10B50D4800781228EF
:101AB0000BD10C48007B2D2807D10A48C07B2D286C
:101AC00003D1084800F016F802E007A006F052F82B
:101AD00010BD0000001001408C0100205D000020BE
:101AE0005C000020280100206572726F7220696E10
:101AF000707574002DE9F0410446E17AA07A30381F
:101B000000EB800001EB40003038C5B2A17B607B68
:101B1000303800EB800001EB40003038C6B2617C09
:101B2000207C303800EB800001EB40003038C7B239
:101B3000064890F800803B46324629464046FFF76B
:101B400009FF03A006F016F8BDE8F0815800002058
:101B5000C4D6D6D3C9E8D6C3B3C9B9A6000000001D
:101B600000B587B000BF002001905548006840F0E4
:101B70000200534908600846006800F00200019026
:101B800000BF00BF2020029001200390022005909A
:101B900002A94C4800F09EFD01222021494800F096
:101BA00028FF07B000BD10B500222021454800F0F5
:101BB00020FF40F6B83000F024FB012220214148EC
:101BC00000F017FF10BD70B50446B4F57A7F10D051
:101BD0003D48B0FBF4F501203C490860284605F07B
:101BE0001FFF00203A49C1F89402284605F018FF6B
:101BF00003E04FF47A7005F013FF70BD10B5044692
:101C0000012032490860204605F02CFF00203049B1
:101C1000C1F89402204605F025FF10BD10B5002440
:101C200000BF06E02B4931F8241088B2FFF7E6FF29
:101C3000641C0C2CF6DB10BD10B500240B2406E050
:101C4000244931F8241088B2FFF7D8FF641E002C15
:101C5000F6DA10BD70B5C6B01C221F493FA805F0CA
:101C600046FF7C221D4920A805F041FF7C221C492B
:101C700001A805F03CFF0A26002418E0002508E032
:101C800020A9095D3FAA32F81100FFF79CFF681CEC
:101C900085B201A8005D20A9095D3FAA32F81110A4
:101CA0004843B0FBF6F0A842EAD8601C84B2792C15
:101CB000E4D301222021034800F09BFE46B070BD12
:101CC000303802400004024020A1070094824042C4
:101CD00000804042600000201C980008B098000876
:101CE0002C99000800B587B000BF0020019079480A
:101CF000006840F00100774908600846006800F07D
:101D00000100019000BF00BF40200290012003901D
:101D100004900320059002A96F4800F0DBFC07B097
:101D200000BD00B587B000BF002001906948006881
:101D300040F00100674908600846006800F00100B3
:101D4000019000BF00BF402002900020039004904B
:101D50000320059002A9604800F0BCFC07B000BD5C
:101D600010B5FFF7BFFF002240215B4800F041FEA5
:101D7000142000F046FA01224021574800F039FEB5
:101D80001E2005F04DFE10BD10B50024FFF7C9FF61
:101D900004E0601CC4B2012005F042FE40214E4820
:101DA00000F01FFE08B9642CF3DB642C01DB01207A
:101DB00010BD002404E0601CC4B2012005F030FE18
:101DC0004021454800F00DFE012801D1642CF2DBD2
:101DD000642C01DB0120EBE70020E9E708B500BF38
:101DE000002000903B48006840F00100394908603D
:101DF0000846006800F00100009000BF00BFFFF738
:101E0000AFFFFFF7C1FF08BD10B5002404E0601C60
:101E1000C4B2012005F004FE40212F4800F0E1FD8E
:101E2000012801D1642CF2DB002404E0601CC4B260
:101E3000012005F0F5FD4021274800F0D2FD08B94A
:101E4000642CF3DB282005F0EBFD4021224800F054
:101E5000C8FD012800D110BD0020FCE770B50024AA
:101E6000002506E06006040EFFF7CEFF0443681C61
:101E7000C5B2082DF6DB204670BD7CB505460E4682
:101E8000FFF76EFFFFF780FFF8B9002405E0FFF7CA
:101E9000E5FF0DF80400601CC4B2052CF7DB9DF8CB
:101EA00000009DF8011008449DF8021008449DF8B8
:101EB000031008449DF80410884208D19DF80000E2
:101EC00030709DF80200287001E001207CBD0020E8
:101ED000FCE70000303802400000024010B5044624
:101EE0002748284908600846446000218160C16095
:101EF000016181610C21416104F0ADFB01222249A5
:101F0000204804F00FFE10BD00BF1D49096801F014
:101F100040010029F9D01A49091D0860704710B521
:101F200003460C46002200BF985CFFF7EDFF501CF3
:101F300082B2A242F8DB10BD10B50024114805F0B2
:101F400098FA00BF01E0641C00BF0E4805F0E3FBF7
:101F50002028F8D100BF002401E0641C00BF01224A
:101F60000949084804F0DEFD0028F6D100BF10BD85
:101F700010B5064B102246211E20FFF717FB10BD9F
:101F8000004400403002002091000020CC010020DD
:101F900010B586B004465449206888423FD100BF3E
:101FA000002000905148006840F001004F4908604F
:101FB0000846006800F00100009000BF00BF00BFAD
:101FC0000020009049481430006840F01000474954
:101FD000143108600846006800F01000009000BF4F
:101FE00000BF4815019002200290012003900220BA
:101FF00004900720059001A93D4800F06BFB4FF4C9
:102000008060019001A93A4800F064FB252000F0AF
:10201000D9F902221146252000F096F941E0354910
:10202000206888423DD100BF002000902F48006802
:1020300040F001002D4908600846006800F00100EA
:10204000009000BF00BF00BF002000902748103064
:10205000006840F4003025491031086008460068E7
:1020600000F40030009000BF00BF04200190022067
:10207000029001200390022004900720059001A9FE
:102080001B4800F027FB0820019001A9184800F028
:1020900021FB262000F096F902221146262000F0AE
:1020A00053F906B010BD104A016891420BD1124994
:1020B0000978124A124B1B78D15411490978491CEE
:1020C0000F4A11700EE00B4A016891420AD10D4986
:1020D00009780D4A0D4B1B78D1540C490978491CDD
:1020E0000A4A117070470000001001403038024069
:1020F00000000240004400405D0000202801002054
:102100005C00002091000020CC0100209000002005
:10211000704770B50446714800784FF47A71B1FB8E
:10212000F0F06F490968B1FBF0F5284600F099F925
:1021300008B1012070BD102C07D200222146501E8C
:1021400000F002F96748046001E00120F2E7002096
:10215000F0E710B56448006840F400706249086018
:102160000846006840F480600860052000F0DAF856
:102170000F20FFF7CEFFFEF77FFB002010BD70475A
:1021800010B54FF0FF305949086000200860401E2C
:10219000091D086000200860401E5449103908607D
:1021A00000200860401E091D086000200860401ED5
:1021B000091D086000200860FEF75FFB002010BDCD
:1021C0004B48006845490978084449490860704708
:1021D00047480068704743480068704770B5044638
:1021E00000253E480078A04206D03C4804703D4897
:1021F0000068FFF78EFF0546284670BD3748007817
:10220000704770B50446FFF7E3FF06462546681C95
:1022100010B132480078054400BFFFF7D9FF801B9A
:10222000A842FAD370BD4FF0E020006920F0020010
:102230004FF0E021086170474FF0E020006940F066
:1022400002004FF0E021086170472A4870472A4891
:102250000068000C704728480068C0F30B00704706
:102260002548406840F001002349486070472248F3
:10227000406820F001002049486070471E484068CF
:1022800040F002001C49486070471B48406820F03D
:1022900002001949486070471748406840F0040040
:1022A0001549486070471448406820F004001249FE
:1022B00048607047012011490860704700200F49AD
:1022C000086070470E48006870470D48001D0068A0
:1022D00070470B4808300068704700009C000020E1
:1022E0003C00002098000020003C024020380240C2
:1022F0009400002000060701002004E000042742AB
:10230000107AFF1F10B5002804DB0A07130EEC4AF1
:10231000135406E00A07140EEA4A00F00F031B1FCD
:10232000D45410BD00BF00F00702E64B0C3B196807
:102330004FF6FF031940E44B0B4343EA0221E14B04
:102340000C3B196000BF70472DE9F05F80460D46D9
:102350001646002700F0AEF9074639462A463346AE
:1023600001F00700C0F1070ABAF1040F02D94FF0DB
:10237000040A01E0C0F1070AD14600F1040ABAF1EB
:10238000070F02D24FF0000A01E0A0F1030AD44681
:102390004FF0010A0AFA09FAAAF1010A0AEA020A46
:1023A0000AFA0CFA4FF0010B0BFA0CFBABF1010B24
:1023B0000BEA030B4AEA0B0421464046FFF7A2FF53
:1023C000BDE8F09F01460846002809DB00F01F0326
:1023D00001229A4043099B0003F1E023C3F8002146
:1023E00000BF704710B501460846002817DB00F013
:1023F0001F0301229A40B54B440943F8242000BF33
:1024000000BF00BFBFF34F8F00BF00BF00BF00BFC2
:1024100000BF00BFBFF36F8F00BF00BF00BF00BF92
:1024200010BD00BF00BF00BF00BF00BFBFF34F8F94
:1024300000BF00BF00BFA3480C38006800F4E06094
:10244000A1490843001D9F490C39086000BF00BF27
:1024500000BFBFF34F8F00BF00BF00BF00BF00BF72
:10246000FDE770B504462546681EB0F1807F01D3B4
:1024700001200FE0681E4FF0E02148610F214FF06E
:10248000FF30FFF73FFF00204FF0E0218861072079
:102490000861002070BD00BF00BF00BFBFF35F8FA9
:1024A00000BF00BF00BF87480C30006820F48030B8
:1024B00084490C310860002082497C3108607047F3
:1024C00040F001017F4A7C3211607E490C3109687D
:1024D00041F480317B4A0C32116000BF00BF00BF65
:1024E000BFF34F8F00BF00BF00BF00BF00BF00BFE2
:1024F000BFF36F8F00BF00BF00BF70474178714AC4
:10250000803211600178F9B1121D41681160017BC0
:102510000907C27A41EA0261827A41EAC241427BFA
:1025200041EA8241827B41EA4241C27B41EA024167
:10253000427A41EA0221027A41EA420102781143D9
:10254000604A8832116005E000215E4A84321160E1
:10255000121D1160704710B500F0ACF810BD2DE9E8
:10256000F04304462046002803DB554F3F5C3F09FB
:1025700007E0544F00F00F0CACF1040C17F80C708E
:102580003F093D460E4606F00700C0F10708B8F1C6
:10259000040F02D94FF0040801E0C0F10708C44657
:1025A00000F10408B8F1070F02D24FF0000801E073
:1025B000A0F10308474625FA07F84FF0010909FA88
:1025C0000CF9A9F1010908EA0908C2F800804FF0E6
:1025D000010808FA07F8A8F1010808EA0508C3F895
:1025E000008000BFBDE8F08310B501460846002812
:1025F00008DB00F01F0301229A40344B803344096A
:1026000043F8242000BF10BD10B50146084600283D
:102610000EDB2E4A8032430952F8232000F01F04BB
:102620000123A3401A400AB1012202E0002200E087
:102630000022104610BD10B501460846002807DBF1
:1026400000F01F0301229A40214B440943F8242043
:1026500000BF10BD10B50146084600280EDB1C4A1D
:102660008032430952F8232000F01F040123A340C5
:102670001A400AB1012202E0002200E000221046C6
:1026800010BD042808D14FF0E021096941F0040190
:102690004FF0E022116107E04FF0E021096921F0DD
:1026A00004014FF0E02211617047704710B5FFF749
:1026B000FCFF10BD03480C380068C0F302207047CF
:1026C00000E400E018ED00E00000FA0580E100E021
:1026D00080E200E0F8B502460B4600250024002009
:1026E0000021DCE0012606FA01F51E6806EA050471
:1026F000AC4273D15E68022E02D05E68122E13D1F6
:10270000CF0802F1200656F827004E07F70E0F26D5
:10271000BE40B0434F07FF0E1E69BE403043CF0896
:1027200002F1200646F8270010684F000326BE403D
:10273000B0431E7906F003064F00BE4030431060E0
:102740005E68012E08D05E68022E05D05E68112EEC
:1027500002D05E68122E13D190684F000326BE404F
:10276000B0434F00DE68BE403043906050680126A1
:102770008E40B0431E79C6F300168E403043506041
:10278000D0684F000326BE40B0434F009E68BE4055
:102790003043D0605E6806F08056B6F1805F7DD130
:1027A00000BF00260096AD4E366846F48046AB4F1B
:1027B0003E603E46366806F48046009600BF00BF85
:1027C000A74E8F0856F827008E07370F0F26BE40FA
:1027D000B043A44EB24202D1002624E05EE0A24EF5
:1027E000B24201D101261EE0A04EB24201D1022622
:1027F00019E09F4EB24201D1032614E09D4EB24231
:1028000001D104260FE09C4EB24201D105260AE018
:102810009A4EB24201D1062605E0994EB24201D14C
:10282000072600E008268F073F0FBE4030438C4E3E
:102830008F0846F82700934E3068A0435E6806F480
:102840008036B6F5803F00D120438E4E3060361D75
:102850003068A0435E6806F40036B6F5003F00D14C
:102860002043884E361D3060361D3068A0435E68B8
:1028700006F48016B6F5801F00D12043814E08363D
:102880003060361D3068A0435E6806F40016B6F569
:10289000001F00D120437B4E0C363060491C1029AC
:1028A000FFF420AFF8BDF0B50C4600250022002350
:1028B000002192E0012606FA01F504EA0502AA4287
:1028C0007ED1674E8F0856F827308E07370F0F26B8
:1028D000BE403340634EB04201D1002623E0624E39
:1028E000B04201D101261EE0604EB04201D1022665
:1028F00019E05F4EB04201D1032614E05D4EB042B4
:1029000001D104260FE05C4EB04201D105260AE059
:102910005A4EB04201D1062605E0594EB04201D1CF
:10292000072600E008268F073F0FBE409E4222D1B7
:102930008E07370F0F2606FA07F3494E8F0856F811
:1029400027609E43464F4FEA910C47F82C604D4E4E
:10295000366896434B4F3E603E1D366896433F1D9A
:102960003E603E1D366896433F1D3E603E1D366804
:1029700096433F1D3E6006684FEA410C032707FA65
:102980000CF7BE430660CF0800F1200656F827601A
:102990004F074FEAD76C0F2707FA0CF7BE434FEAF1
:1029A000D10C00F1200747F82C6086684FEA410CF3
:1029B000032707FA0CF7BE4386604768012600E04C
:1029C0000AE08E40B7434760C6684FEA410C0327D0
:1029D00007FA0CF7BE43C660491C1029FFF46AAF22
:1029E000F0BD024613690B400BB1012000E000204E
:1029F00070470AB1816101E00B048361704742694D
:102A00000A408A4202D10A04826100E08161704773
:102A100008B502464FF480300090009808430090BB
:102A20000098D061D1610098D061D0690090D069E0
:102A300000F4803008B1002008BD0120FCE7704799
:102A400010B504460F4814300068204028B10D48E6
:102A5000143004602046FFF7F2FF10BD44380240F6
:102A60000838014000000240000402400008024013
:102A7000000C024000100240001402400018024006
:102A8000001C0240003C01407148006840F080504A
:102A90006F4908600846006820F080500860704761
:102AA00001206C490862704700206A49086270473B
:102AB0006949096821F0E00102681143664A116022
:102AC0006649096821F48031644A1160111F096860
:102AD00021F48031121F11606049091D096821F439
:102AE00080315E4A121D1160111D096821F4803188
:102AF000121D1160416801F48031B1F5803F07D1AA
:102B00005649091F096841F48031544A121F116067
:102B1000416801F40031B1F5003F05D14F49096822
:102B200041F480314D4A1160017901F0010139B160
:102B30004A49091D096841F48031484A121D116053
:102B4000017901F00201022907D1444908310968DD
:102B500041F48031414A08321160704701203D49FB
:102B60000861704700203B49086170473A4949684D
:102B70000143394A51607047374949688143364AB1
:102B800051607047364A126822F00402344B1A60D2
:102B9000012901D130BF02E040BF20BF20BF7047F4
:102BA0002D4A126822F0030202432B4B1A602C4A72
:102BB000126842F004022A4B1A60012901D130BF89
:102BC00002E040BF20BF20BF254A126822F0040265
:102BD000234B1A6070472048006840F002001E49ED
:102BE00008601F48006840F004001D49086000BFED
:102BF00000BF30BF7047704710B5184810300068EC
:102C000000F4803030B1FFF7F6FF4FF48030134905
:102C10001031086010BD1248006840F002001049F1
:102C2000086070470E48006820F002000C490860F8
:102C300070470B48006840F0100009490860704771
:102C40000748006820F01000054908607047000040
:102C50002038024000000E4200700040043C014059
:102C600010ED00E000207047F8B504460CB90120D3
:102C7000F8BD207800F00100002874D0F948006801
:102C800000F00C0004280DD0F648006800F00C009D
:102C9000082813D1F348001F006800F48000B0F545
:102CA000800F0BD1EF4808380068C0F3404000287F
:102CB00059D06068002856D10120D9E700BF60686C
:102CC000B0F5803F08D1E7480838006840F480300C
:102CD000E449083908601EE06068B0F5A02F0DD106
:102CE000E0480838006840F48020DE490839086070
:102CF0000846006840F4803008600CE0D948083885
:102D0000006820F48030D749083908600846006818
:102D100020F48020086000BF606890B1FFF758FA87
:102D2000054606E0FFF754FA401B642801D903204A
:102D30009EE7CC4808380068C0F340400028F1D036
:102D400011E0FFF745FA054606E0FFF741FA401BA0
:102D5000642801D903208BE7C24808380068C0F313
:102D600040400028F1D1207800F0020002285FD115
:102D7000BC48006800F00C0058B1BA48006800F088
:102D80000C0008281CD1B748001F006800F4800020
:102D9000B0B9B44808380068C0F3400020B1E0681A
:102DA000012801D0012063E7AE480838006820F010
:102DB000F800216940EAC100AA490839086037E0F3
:102DC000E06800B30120A8490860FFF701FA054652
:102DD00006E0FFF7FDF9401B022801D9032047E771
:102DE000A04808380068C0F340000028F1D09D4892
:102DF0000838006820F0F800216940EAC1009949CC
:102E00000839086014E0002097490860FFF7E0F9EE
:102E1000054606E0FFF7DCF9401B022801D9032034
:102E200026E7904808380068C0F340000028F1D138
:102E3000207800F0080008282CD16069A8B1012092
:102E40008A490860FFF7C4F9054606E0FFF7C0F9B4
:102E5000401B022801D903200AE782486C30006831
:102E6000C0F340000028F1D014E000207F49086042
:102E7000FFF7AEF9054606E0FFF7AAF9401B022866
:102E800001D90320F4E677486C300068C0F34000B5
:102E90000028F1D1207800F00400042870D1002629
:102EA00070483830006800F0805090B900BF0020B2
:102EB00000906C483830006840F0805069493831E3
:102EC00008600846006800F08050009000BF00BF16
:102ED00001266748006800F48070B0B96448006853
:102EE00040F4807062490860FFF772F9054606E019
:102EF000FFF76EF9401B022801D90320B8E65C48B1
:102F0000006800F480700028F2D000BFA06801289B
:102F100008D154486830006840F0010051496831D8
:102F200008601DE0A06805280DD14E486830006893
:102F300040F004004B49683108600846006840F0E2
:102F4000010008600CE047486830006820F001008C
:102F50004449683108600846006820F004000860B1
:102F600000BFA068A8B1FFF733F9054609E0FFF7F5
:102F70002FF9401B41F28831884202D9032077E6BD
:102F800026E0384868300068C0F340000028EED0E2
:102F900013E0FFF71DF9054608E0FFF719F9401B9C
:102FA00041F28831884201D9032061E62D4868301A
:102FB0000068C0F340000028EFD1012E07D1294856
:102FC0003830006820F0805026493831086000BF52
:102FD000A069B8B32348006800F00C0008285ED050
:102FE000A069022846D100201F490866FFF7F0F8C3
:102FF000054606E0FFF7ECF8401B022801D9032044
:1030000036E6184808380068C0F340600028F1D15F
:10301000D4E907010843616A40EA81110122A06AEC
:10302000C2EB500041EA00412C20005D41EA006003
:103030000C49091F086001200B490866FFF7C8F812
:10304000054607E02DE0FFF7C3F8401B022801D931
:1030500003200DE6034808380068C0F340600028EC
:10306000F1D01EE00838024000004742800E47427F
:10307000007000400020F9490866FFF7A9F80546EE
:1030800006E0FFF7A5F8401B022801D90320EFE571
:10309000F3480068C0F340600028F2D101E001204D
:1030A000E6E50020E4E52DE9F047002400250026B0
:1030B000A146EB480830006800F00C0020B104285D
:1030C00005D008283AD105E0DFF8989339E0DFF819
:1030D000989336E0E248001D006800F03F04E048A5
:1030E000001D006800F4800078B1DF48DC49091D4C
:1030F0000968C1F38811A0FB017001462246002334
:10310000384604F0C3FC05460EE0D648D449091DF4
:103110000968C1F38811A0FB017001462246002313
:10312000384604F0B3FC0546CD48001D0068C0F3E6
:103130000140401C4600B5FBF6F902E0DFF824939D
:1031400000BF00BF4846BDE8F08770B504460D4695
:103150000CB9012070BDC548006800F00F00A842FE
:1031600009D2C2490D700846006800F00F00A8425D
:1031700001D00120EEE7207800F00200022823D1E0
:10318000207800F00400042807D1B5480830006812
:1031900040F4E050B24908310860207800F008009F
:1031A000082807D1AE480830006840F46040AC49B8
:1031B00008310860AA480830006820F0F000A168D3
:1031C0000843A74908310860207800F00100A0B347
:1031D0006068012806D1A2480068C0F34040A8B941
:1031E0000120B7E76068022802D06068032806D192
:1031F0009B480068C0F3406040B90120AAE79848A6
:103200000068C0F3400008B90120A3E794480830E3
:10321000006820F0030061680843914908310860A4
:10322000FEF7D6FF064609E0FEF7D2FF801B41F20B
:103230008831884202D903208CE708E088480830AA
:10324000006800F00C006168B0EB810FECD187489A
:10325000006800F00F00A84209D984490D700846A3
:10326000006800F00F00A84201D0012072E720782A
:1032700000F00400042809D179480830006820F4DF
:10328000E050E1680843764908310860207800F092
:10329000080008280AD172480830006820F460400D
:1032A000216940EAC1006E4908310860FFF7FBFE62
:1032B0006B4908310968C1F303116D4A515CC8407C
:1032C0006C4908600F20FEF724FF002042E770B52C
:1032D00086B006460C46154656BB00BF002000903F
:1032E0005F483030006840F001005D4930310860CF
:1032F0000846006800F00100009000BF00BF88157C
:103300000190022002900320049000200390059079
:1033100001A95948FFF7DEF951480830006820F04C
:10332000EC6044EA050108434D490831086029E092
:1033300000BF002000904A483030006840F0040090
:103340004749303108600846006800F004000090EA
:1033500000BF00BF48150190022002900320049096
:1033600000200390059001A94448FFF7B3F93C48B9
:103370000830006820F0784044EAC5010843384925
:103380000831086006B070BD01203449C864704738
:1033900000203249C864704736480068704700B55D
:1033A000FFF7FAFF2E4908310968C1F38221344A38
:1033B000515CC84000BD00B5FFF7EEFF2849083159
:1033C0000968C1F342312E4A515CC84000BD0F214B
:1033D00001602349096801F48021B1F5802F03D1F0
:1033E0004FF4A02141600CE01D49096801F48031CF
:1033F000B1F5803F03D14FF48031416001E00021FD
:1034000041601749096801F0010111B10121C16052
:1034100001E00021C16012490968C1F3C4010161E2
:103420000F497031096801F00401042902D1052116
:1034300081600AE00A497031096801F0010111B1A7
:103440000121816001E00021816005497431096832
:1034500001F00101B1B10121416115E000004742D5
:10346000003802400024F40000127A00003C0240C0
:10347000C47B00083C00002000000240000802401D
:10348000D47B0008002141612F49096801F0807157
:10349000B1F1807F02D10221816101E001218161CE
:1034A0002949091D096801F48002C2612649091DE4
:1034B000096801F03F0202622349091D0968C1F34E
:1034C000881242622049091D096801F4403101F562
:1034D0008031CA0B82621C49091D0968C1F303626D
:1034E000C26270470F220260174A0832126802F067
:1034F00003024260144A0832126802F0F00282604D
:10350000114A0832126802F4E052C2600E4A0832D0
:10351000126802F46042D20802610C4A126802F09A
:103520000F020A607047704710B507480C300068FA
:1035300000F08000802805D1FFF7F5FF80200249C8
:103540000E31087010BD000000380240003C0240FF
:10355000F8B5044600250026207800F0010020B9C7
:10356000207800F0040004282FD10020FE4988664E
:10357000FEF72EFE054606E0FEF72AFE401B022857
:1035800001D90320F8BDF9480068C0F3C0600028E5
:10359000F2D160688101207A41EA0070F3498431F8
:1035A00008600120F0498866FEF712FE054606E035
:1035B000FEF70EFE401B022801D90320E2E7EB488C
:1035C0000068C0F3C0600028F2D0207800F002004C
:1035D00002287DD100BF00200090E4484030006800
:1035E00040F08050E149403108600846006800F032
:1035F0008050009000BF00BFDD48006840F480703C
:10360000DB490860FEF7E4FD054606E0FEF7E0FD55
:10361000401B022801D90320B4E7D548006800F414
:1036200080700028F2D0D1487030006800F44076F5
:103630004EB3A08900F44070B04224D0CB48703023
:10364000006820F440760120CA4908600020086024
:10365000C64870300660006800F0010098B1FEF7BF
:10366000B7FD054608E0FEF7B3FD401B41F2883187
:10367000884201D9032085E7BC4870300068C0F358
:1036800040000028EFD000BFA08900F44070B0F5E2
:10369000407F0CD1B5480830006820F4F810B64AD5
:1036A000E16811400843B1490831086007E0AF48BC
:1036B0000830006820F4F810AC4908310860AB48C5
:1036C00070300068A189C1F30B010843A74900E0ED
:1036D00002E07031086000BF002053E7032202605F
:1036E000A24A84321268C2F3881242609F4A84322E
:1036F0001268C2F3027383609C4A0832126802F4B3
:10370000F8119A4A7032126802F440720A43C26099
:10371000704770B5014600200022002300240129D3
:1037200035D1924D08352D6805F400031BB1012BEE
:1037300029D1924829E08D4D2D1D2D6805F4800575
:10374000B5F5800F08D1894D2D1D2D6805F03F0579
:103750008B4EB6FBF5F207E0844D2D1D2D6805F06C
:103760003F05884EB6FBF5F2804D84352D68C5F3D4
:10377000881505FB02F47D4D84352D68C5F302756F
:10378000B4FBF5F001E0002000BF00BF00BF00BFA8
:1037900070BD70B50446002073498866FEF718FDB9
:1037A000054606E0FEF714FD401B022801D9032060
:1037B00070BD6E480068C0F3C0600028F2D1206878
:1037C0008001217940EA0170684984310860012054
:1037D00065498866FEF7FCFC054606E0FEF7F8FC46
:1037E000401B022801D90320E2E760480068C0F3CB
:1037F000C0600028F2D00020DAE710B500205A4956
:103800008866FEF7E5FC044606E0FEF7E1FC001BD7
:10381000022801D9032010BD5448006800F0006060
:103820000028F2D100BFF6E710B5FEF7D1FC044640
:103830004E48006840F001004C49086006E0FEF781
:10384000C7FC001B022801D9032010BD47480068AF
:1038500000F002000028F2D04448006840F08000E8
:1038600042490860FEF7B4FC044600203F49083195
:10387000086008E0FEF7ACFC001B41F2883188428A
:1038800001D90320E1E739480830006800F00C0056
:103890000028EFD1FEF79CFC04463448006820F471
:1038A00050203249086006E0FEF792FC001B6428B5
:1038B00001D90320C9E72D48006800F40030002832
:1038C000F2D1FEF785FC04462848006820F080709D
:1038D0002649086006E0FEF77BFC001B022801D9A0
:1038E0000320B2E72148006800F000700028F2D100
:1038F000FEF76EFC04461D48006820F080601B49FE
:10390000086006E0FEF764FC001B022801D90320D2
:103910009BE71648006800F000600028F2D11A48C2
:103920001249091D086019481049843108600F4880
:103930000C30006820F4F8500C490C31086008463F
:10394000006820F4005008600846006840F41F003A
:1039500008600846006840F40010086003487430AE
:10396000006820F0010013E00000474200380240E8
:1039700000700040400E4742FFFCFF0F0080BB007C
:1039800000127A000024F4001030000400300020FF
:103990000949743108600846006840F0807008608A
:1039A0000648074908600F20FEF7B3FB08B1012065
:1039B0004BE7002049E70000003802400024F400F3
:1039C0003C0000200146087810381823B0FBF3F2C1
:1039D000FE48805CC865032A05D908686FF30900B2
:1039E000001D886503E008686FF309008865886D2D
:1039F0007047014600208A6A8B69CBB932B1012A2F
:103A00000DD0022A03D0032A10D10EE000BFCB6AEA
:103A100003F08073B3F1807F00D1012007E0CB6A0F
:103A2000B3F1C07F00D1012001E000E000BF34E02D
:103A30008B69B3F5005F1AD132B1012A07D0022A8F
:103A400003D0032A11D10AE000BF01200EE0CB6AA7
:103A500003F08073B3F1807F00D1012006E0CB6AD0
:103A6000B3F1C07F00D1012000E000BF15E032B10A
:103A7000012A05D0022A04D0032A0CD103E000BF9A
:103A800000BF012008E0CB6A03F08073B3F1807FB0
:103A900000D1012000E000BF00BF70472DE9F041D8
:103AA00004460025FEF794FB074614B90120BDE843
:103AB000F081606A00B100BF00BF002084F83400CC
:103AC00000BF022084F835002068006820F0010063
:103AD000216808600AE0FEF77BFBC01B052805D9BA
:103AE00020206065032084F83500E0E72068006846
:103AF00000F001000028EED120680568B4480540B8
:103B0000D4E901010843E168084321690843616978
:103B10000843A1690843E1690843216A0843054352
:103B2000606A042803D1D4E90B01084305432068E7
:103B300005602068456925F00705606A0543606AED
:103B400004280DD1A06A0543E06A48B12046FFF77A
:103B500050FF28B140206065012084F83500A6E7B9
:103B6000206845612046FFF72DFF064694F85C105B
:103B70003F208840B06000206065012084F8350057
:103B8000002094E770B504460CB9012070BD94F88C
:103B90003500022800D1F9E72068006820F0010014
:103BA0002168086000202168086021684860216859
:103BB00088602168C8602168086121202168486107
:103BC0002046FFF7FFFE05460020E06320646064A6
:103BD000A064E064206594F85C103F208840A860F1
:103BE0000020606584F8350000BF84F8340000BF11
:103BF00000BFCBE730B50468246824F4802405684E
:103C00002C60046863608468402C04D10468A2605E
:103C10000468E16003E00468A1600468E26030BD0C
:103C20002DE9F04104460D4616461F464FF00008A8
:103C300000BF94F83400012802D10220BDE8F081D1
:103C4000012084F8340000BF94F83500012811D118
:103C5000022084F83500002060653B463246294644
:103C60002046FFF7C7FF2068006840F00100216888
:103C7000086006E000BF002084F8340000BF4FF069
:103C800002084046DAE72DE9F04704460D4616469D
:103C90001F464FF00008D4F8589000BF94F8340045
:103CA000012802D10220BDE8F087012084F8340009
:103CB00000BF94F8350001282BD1022084F835008C
:103CC000002060653B46324629462046FFF792FFBA
:103CD00094F85C103F208840C9F80800206800680C
:103CE00040F01600216808602068406940F08000BC
:103CF00021684861206C28B12068006840F0080005
:103D0000216808602068006840F0010021680860B0
:103D100006E000BF002084F8340000BF4FF0020826
:103D20004046C0E770B50446A56DFEF751FA064659
:103D300094F83500022808D08020606500BF00207C
:103D400084F8340000BF012070BD2068006820F0B6
:103D50001600216808602068406920F08000216812
:103D60004861206C08B9A06C28B12068006820F078
:103D70000800216808602068006820F001002168C0
:103D800008600FE0FEF724FA801B05280AD92020DE
:103D9000606500BF002084F8340000BF032084F871
:103DA0003500D1E72068006800F001000028E9D163
:103DB00094F85C103F208840A86000BF002084F881
:103DC000340000BF012084F8350003E03898000873
:103DD0003F8010F00020B7E7014691F83500022837
:103DE00003D08020486501207047052081F8350008
:103DF0000868006820F001000A6810600020F3E7FE
:103E00002DE9F05F0446884617464FF0000AFEF79A
:103E1000DFF9834694F83500022809D080206065D8
:103E200000BF002084F8340000BF0120BDE8F09FEF
:103E30002068006800F4807020B14FF480706065E5
:103E40000120F3E7B8F1000F05D194F85C102020B1
:103E500000FA01F904E094F85C10102000FA01F96E
:103E6000A56D2E6842E0781C90B12FB1FEF7B0F935
:103E7000A0EB0B00B8420BD92020606500BF0020EA
:103E800084F8340000BF012084F835000320CDE71A
:103E90002E6894F85C1008208840304040B1606D76
:103EA00040F00100606594F85C1008208840A8602C
:103EB00094F85C1001208840304040B1606D40F0C3
:103EC0000200606594F85C1001208840A86094F8B6
:103ED0005C1004208840304040B1606D40F0040028
:103EE000606594F85C1004208840A86006EA090028
:103EF00020B9606D00F001000028B4D0606DA0B161
:103F0000606D00F0010080B12046FFF70BFF94F8D0
:103F10005C1030208840A86000BF002084F8340086
:103F200000BF012084F8350080E7B8F1000F0DD103
:103F300094F85C1030208840A86000BF002084F80E
:103F4000340000BF012084F8350004E094F85C10D0
:103F500010208840A860504668E7F8B50446002065
:103F60000090C64800684FF41651B0FBF1F7A56DFC
:103F70002E6894F85C1008208840304098B1206882
:103F8000006800F0040070B12068006820F00400B0
:103F90002168086094F85C1008208840A860606D73
:103FA00040F00100606594F85C10012088403040CA
:103FB00068B12068406900F0800040B194F85C105E
:103FC00001208840A860606D40F00200606594F8B0
:103FD0005C1004208840304068B12068006800F020
:103FE000020040B194F85C1004208840A860606D25
:103FF00040F00400606594F85C1010208840304068
:1040000078B32068006800F0080050B394F85C10A2
:1040100010208840A8602068006800F4802080B1EB
:104020002068006800F4002028B9206CC8B1204640
:10403000216C884715E0A06C98B12046A16C884798
:104040000FE02068006800F4807028B920680068DC
:1040500020F0080021680860206C10B12046216C17
:10406000884794F85C10202088403040002865D0B4
:104070002068006800F0100000285FD094F85C1001
:1040800020208840A86094F83500052828D12068B1
:10409000006820F01600216808602068406920F060
:1040A000800021684861206C08B9A06C28B12068A4
:1040B000006820F008002168086094F85C103F2038
:1040C0008840A86000BF002084F8340000BF0120B1
:1040D00084F83500206D10B12046216D8847F8BD69
:1040E0002068006800F4802080B12068006800F437
:1040F000002028B9606C10B12046616C88471DE033
:10410000E06BD8B12046E16B884717E02068006873
:1041100000F4807068B92068006820F01000216801
:10412000086000BF002084F8340000BF012084F83C
:104130003500E06B10B12046E16B8847606D38B305
:10414000606D00F00100F0B1052084F835002068B2
:10415000006820F001002168086000BF0098401C42
:104160000090B84200D905E02068006800F0010026
:104170000028F3D100BF00BF002084F8340000BF46
:10418000012084F83500E06C10B12046E16C8847CE
:1041900000BFA4E710B50346002400BF93F8340025
:1041A000012801D1022010BD012083F8340000BF96
:1041B00093F83500012814D1062910D2DFE801F068
:1041C000030507090B0DDA630AE01A6408E05A6474
:1041D00006E09A6404E0DA6402E01A6500E000BFD9
:1041E00000E0012400BF002083F8340000BF204617
:1041F000D9E70246002300BF92F83400012801D11C
:1042000002207047012082F8340000BF92F8350088
:10421000012824D107291FD2DFE801F004070A0D85
:10422000101316000020D06318E00020106415E081
:104230000020506412E0002090640FE00020D06461
:104240000CE00020106509E00020D0631064506489
:104250009064D064106501E0012300BF00E00123F9
:1042600000BF002082F8340000BF1846C9E70146AD
:1042700091F8350070470146486D70473C000020BA
:1042800010B503460022086853F82020DA4802409F
:10429000D1E901042043CC6820430C6920434C69D8
:1042A00020438C692043CC6920430C6A20434C6A2C
:1042B00020438C6A2043CC6A2043CC6B20430C6B98
:1042C000204302438868082801D142F04002086870
:1042D00043F82020002010BD10B5034653F82200FB
:1042E00020F0010043F8220022B943F2DB0043F83A
:1042F000220003E043F2D20043F822006FF0704442
:10430000501C43F82040204641F82200002010BDF8
:1043100030B503460024501C53F8204004F04044BC
:10432000D1E9000540EA05108D6840EA05208D8935
:1043300040EA0545088A401E45EA0055087D801E72
:1043400045EA00608D6928430443501C43F820402F
:10435000002030BD70B504461D460023B5F5804FE2
:1043600013D154F82230A5480340D1E9000640EAB1
:1043700006108E6840EA06208E8940EA06408E6963
:104380003043034344F8223003E06FF0704044F8B8
:104390002200002070BD024652F8210040F48050F7
:1043A00042F8210000207047024652F8210020F414
:1043B000805042F821000020704710B502460023CB
:1043C0000868102801D1136800E0136A8C48034084
:1043D000486840F008008C682043CC6820430C6992
:1043E00020434C6940EA44208C6940EA443003434E
:1043F0000868102801D1136000E01362002010BD8E
:1044000030B503460024102A01D19C6800E09C6A64
:104410000024D1E9000540EA05200D8940EA054065
:104420000D7B40EA05600443102A01D19C6000E046
:104430009C62002030BD30B503460024102A01D113
:10444000DC6800E0DC6A0024D1E9000540EA0520D0
:104450000D8940EA05400D7B40EA05600443102ABF
:1044600001D1DC6000E0DC62002030BD0246102992
:1044700004D1106820F00400106003E0106A20F0FE
:1044800004001062102908D11820106040205060EC
:104490004FF0FC309060D06007E0182010624020A0
:1044A00050624FF0FC309062D062002070470246AC
:1044B000102904D1106840F04000106003E0106A39
:1044C00040F040001062002070470246102904D1DD
:1044D000106820F04000106003E0106A20F04000F7
:1044E0001062002070472DE9F04104460E46174641
:1044F0001D464FF00008FDF76BFE80460BE0681C80
:1045000048B12DB1FDF764FEA0EB0800A84202D926
:104510000320BDE8F081102F03D16068C0F3801044
:1045200002E0606AC0F380100028E8D0102F02D1AA
:104530006069306001E0606B30600020E9E710B531
:104540000246002313682F480340086840F010001B
:104550004C6840EA44208C6840EA443003431360CE
:10456000002010BD10B50246002393680023D1E956
:10457000000440EA04200C8940EA04400C7B40EA35
:10458000046003439360002010BD10B50246002371
:10459000D3680023D1E9000440EA04200C8940EAF2
:1045A00004400C7B40EA04600343D360002010BD4C
:1045B00010B50246002313690023D1E9000440EA44
:1045C00004200C8940EA04400C7B40EA0460034369
:1045D0001361002010BD0146086820F00400086047
:1045E00018200860002048604FF0FC308860C860E8
:1045F00008610020704700008000F0FF0000F0CF4D
:104600008101F0FFC501FEFF704770B504460E46FC
:1046100015460CB9012070BD94F8490028B9002056
:1046200084F848002046FCF733FC04F108012068B8
:10463000FFF726FE3146A2682068FFF769FE29468B
:10464000236BD4E90102FFF785FEA168206850F8CA
:10465000210040F00100A268216841F822000020FA
:10466000D9E7704710B504462046FFF7FAFF94E8F3
:104670000700FFF731FE002084F8490000BF84F8EE
:10468000480000BF10BD7047704730B504460D4666
:1046900000BF94F84800012801D1022030BD01205C
:1046A00084F8480000BF022084F8490004E028781C
:1046B0001070521C6D1C5B1E002BF8D1012084F879
:1046C000490000BF002084F8480000BF00BFE5E7B4
:1046D00030B504460D4694F84900042801D1012064
:1046E00030BD00BF94F84800012801D10220F7E74F
:1046F000012084F8480000BF022084F8490004E04B
:1047000010782870521C6D1C5B1E002BF8D1012004
:1047100084F8490000BF002084F8480000BF00BFB3
:10472000DEE730B504460D4600BF94F84800012886
:1047300001D1022030BD012084F8480000BF0220D2
:1047400084F8490004E028881080921CAD1C5B1E90
:10475000002BF8D1012084F8490000BF002084F824
:10476000480000BF00BFE5E730B504460D4694F8A9
:104770004900042801D1012030BD00BF94F8480051
:10478000012801D10220F7E7012084F8480000BF8A
:10479000022084F8490004E010882880921CAD1C97
:1047A0005B1E002BF8D1012084F8490000BF0020D7
:1047B00084F8480000BF00BFDEE710B5044600BF24
:1047C00094F84800012801D1022010BD012084F88E
:1047D000480000BF022084F8490004E00868106027
:1047E000121D091D5B1E002BF8D1012084F8490021
:1047F00000BF002084F8480000BF00BFE5E710B507
:10480000044694F84900042801D1012010BD00BFDE
:1048100094F84800012801D10220F7E7012084F82C
:10482000480000BF022084F8490004E010680860D6
:10483000121D091D5B1E002BF8D1012084F84900D0
:1048400000BF002084F8480000BF00BFDEE72DE96C
:10485000F04104460D4616461F4600BF94F8480036
:10486000012802D10220BDE8F081012084F848002F
:1048700000BF022084F849004148E16CC863414808
:10488000E16CC8643B4632462946E06CFFF7FBF911
:10489000012084F8490000BF002084F8480000BFD0
:1048A00000BFE0E72DE9F04104460D4616461F46DD
:1048B00094F84900042802D10120BDE8F08100BF2E
:1048C00094F84800012801D10220F6E7012084F87D
:1048D000480000BF022084F849002948E16CC86301
:1048E0002848E16CC8643B462A463146E06CFFF735
:1048F000CAF9012084F8490000BF002084F848006C
:1049000000BF00BFD9E710B5044600BF94F84800C7
:10491000012801D1022010BD012084F8480000BF09
:10492000A1682068FFF737FD012084F8490000BF27
:10493000002084F8480000BF00BFECE710B5044633
:1049400000BF94F84800012801D1022010BD0120C9
:1049500084F8480000BF022084F84900A16820685C
:10496000FFF722FD042084F8490000BF002084F8EE
:10497000480000BF00BFE9E7014691F849007047D1
:10498000874600088946000870B50446002520685F
:10499000C06820F0A0002168C860FDF719FC05463A
:1049A00007E0FDF715FC401BB0F57A7F01D9032025
:1049B00070BD2068C06800F020000028F1D0002001
:1049C000F6E770B5044600252068C06800F0400096
:1049D000A0B9681E2168C860FDF7FAFB054607E02C
:1049E000FDF7F6FB401BB0F57A7F01D9032070BDBF
:1049F0002068C06800F040000028F1D00020F6E7F1
:104A0000704710B504460CB9012010BD607F20B975
:104A1000002020772046FCF74AFF0220607700BF85
:104A2000CA202168486253202168486200BF20469E
:104A3000FFF7C7FF40B100BFFF202168486200BFF9
:104A4000042060770120E0E720688068F84908408A
:104A500021688860216960680843616908432168AA
:104A600089680843216888602168E06808612068D7
:104A70000169208941EA0040216808612068C06816
:104A800020F080002168C8602068806800F0200065
:104A900060B92046FFF778FF40B100BFFF202168D2
:104AA000486200BF042060770120AEE72068006CF8
:104AB00020F48020216808642068006CA169084304
:104AC0002168086400BFFF202168486200BF012000
:104AD0006077002099E7704770B5044600250220F2
:104AE000607700BFCA20216848625320216848626D
:104AF00000BF2046FFF765FF40B100BFFF202168DF
:104B0000486200BF04206077012070BD002021684A
:104B1000086042F20110216848602068806800F057
:104B2000070021688860FDF753FB05460DE0FDF79F
:104B30004FFB401BB0F57A7F07D900BFFF202168EB
:104B4000486200BF03206077DFE72068C06800F09C
:104B500004000028EBD0206880680020216888606D
:104B60004FF6FF7021684861B24821680861002053
:104B7000216888612168C861216808622168C8626B
:104B80002168C86321684864216888642168C86016
:104B9000216808642068806800F0200060B9204621
:104BA000FFF7F2FE40B100BFFF202168486200BF5E
:104BB000042060770120A8E700BFFF202168486239
:104BC00000BF2046FFF787FF0020607700BF2077F7
:104BD00000BF00BF99E70146002203E0521CA1F18B
:104BE0000A00C1B20A29F9D2100741EA10607047E1
:104BF0002DE9F04104460D461646002700BF207FF0
:104C0000012802D10220BDE8F0810120207700BFF9
:104C100002206077CEB92068806800F0400000B1C3
:104C200002E00020E87000BF2878FFF7D4FF0304FB
:104C30006878FFF7D0FF43EA0023A878FFF7CBFF9F
:104C40000343E87843EA004712E02068806800F0F8
:104C5000400000B102E00020E87000BF28780004A6
:104C6000697840EA0120A9780843E97840EA0147D9
:104C700000BFCA202168486253202168486200BFF3
:104C80002046FFF79EFE60B100BFFF20216848620A
:104C900000BF0420607700BF0020207700BF012004
:104CA000B1E765483840216808602068806820F4D2
:104CB000802021688860D5E903010843216889685C
:104CC0000843216888602068C06820F0800021685F
:104CD000C8602068806800F0200080B92046FFF797
:104CE00053FE60B100BFFF202168486200BF04206E
:104CF000607700BF0020207700BF012083E700BF5E
:104D0000FF202168486200BF0120607700BF0020BB
:104D1000207700BF00BF76E7014600BF080900EB1F
:104D20008000420001F00F001044C0B2704770B51F
:104D300004460B46164600252068806A58602068A5
:104D40000069C0F30E009860206800683A4900EAE4
:104D50000105C5F305401870C5F30620587005F02D
:104D60007F00987005F48000000CD8705EB9187848
:104D7000FFF7D2FF18705878FFF7CEFF5870987879
:104D8000FFF7CAFF9870002070BD2DE9F04104467E
:104D90000D461646002700BF207F012802D10220C1
:104DA000BDE8F0810120207700BF022060774EB976
:104DB000687800F01000102804D1687800F0EF0047
:104DC0000A30687086B9E878FFF705FF0304687851
:104DD000FFF701FF43EA0023A878FFF7FCFE034337
:104DE000287843EA403709E0E8780004697840EA27
:104DF0000120A9780843297840EA413700BFCA203A
:104E00002168486253202168486200BF2046FFF7AE
:104E1000D8FD98B100BFFF202168486200BF042080
:104E2000607700BF0020207700BF0120B8E70000B6
:104E3000BFFF8FFFFF007F007F7F7F00FE4838406D
:104E4000216848602068C06820F080002168C86040
:104E50002068806800F0200080B92046FFF794FDAC
:104E600060B100BFFF202168486200BF0420607766
:104E700000BF0020207700BF012091E700BFFF2086
:104E80002168486200BF0120607700BF00202077C2
:104E900000BF00BF84E770B505460B4616460024E8
:104EA00028684068E44900EA0104200CD870C4F383
:104EB0000420587004F03F009870C4F3423018701A
:104EC0005EB9D878FFF728FFD8705878FFF724FF2D
:104ED00058709878FFF720FF9870002070BD2DE97A
:104EE000F04704460D4616460027B846B94600BFAF
:104EF000207F012802D10220BDE8F0870120207721
:104F000000BF0220607746BB2068806800F0400048
:104F100000B102E00020E87000BFE86900B900E0DD
:104F200000BF2878FFF757FE03046878FFF753FEA9
:104F300043EA0023A878FFF74EFE0343E87843EAEC
:104F4000004395F82000FFF746FE43EA0060E96958
:104F50000843696940EA01081FE02068806800F0A2
:104F6000400000B102E00020E87000BFE86900B92D
:104F700000E000BF28780004697840EA0120A978A1
:104F80000843E97840EA014095F8201040EA0160C2
:104F9000E9690843696940EA0108A969686840EA63
:104FA000010900BFCA202168486253202168486275
:104FB00000BF686AB0F5807F35D12068806820F432
:104FC0008070216888602068806820F480502168A3
:104FD0008860FDF7FDF8074612E0FDF7F9F8C01B01
:104FE000B0F57A7F0CD900BFFF202168486200BF6E
:104FF0000320607700BF0020207700BF03207BE7FD
:105000002068C06800F001000028E6D02068C0F8E1
:105010001C802068C0F844902068806840F480704C
:105020002168886034E02068806820F4007021687E
:1050300088602068806820F4005021688860FDF74F
:10504000C7F8074612E0FDF7C3F8C01BB0F57A7F3A
:105050000CD900BFFF202168486200BF03206077A1
:1050600000BF0020207700BF032045E72068C0680C
:10507000C0F340000028E6D02068C0F820802068F7
:10508000C0F848902068806840F40070216888600B
:1050900000BFFF202168486200BF0120607700BF89
:1050A0000020207700BF00BF26E72DE9F841034626
:1050B0000C461546002600276048006840094FF45A
:1050C0007A71B0FBF1F04843009000BF187F0128CF
:1050D00002D10220BDE8F8810120187700BF02202C
:1050E000587755BB1868806800F0400000B102E0B6
:1050F0000020E07000BFE06900B900E000BF207848
:10510000FFF769FD4FEA00486078FFF764FD48EA61
:105110000028A078FFF75FFD48EA0008E07848EA39
:10512000004894F82000FFF756FD48EA0060E16966
:105130000843616940EA01061FE01868806800F0D2
:10514000400000B102E00020E07000BFE06900B95B
:1051500000E000BF20780004617840EA0120A178D7
:105160000843E17840EA014094F8201040EA0160E9
:10517000E1690843616940EA0106A169606840EAA3
:10518000010700BFCA2019684862532019684862A5
:1051900000BF606AB0F5807F36D11868806820F45F
:1051A0008070196888601868C06800F0800060F43A
:1051B000C0701968C86000BF0098411E009160B9B6
:1051C00000BFFF201968486200BF0320587700BF66
:1051D0000020187700BF03207CE71868C06800F043
:1051E00001000028E8D01868C6611868476418688C
:1051F000806840F48070196888601868806840F49E
:105200008050196888603AE01868806820F400705F
:10521000196888601868C06800F0800060F4207029
:105220001968C86000BF0098411E009188B900BF8E
:10523000FF201968486203E03FFFFF003C000020A8
:1052400000BF0320587700BF0020187700BF03205D
:1052500040E71868C068C0F340000028E3D0186831
:105260000662186887641868806840F400701968DE
:1052700088601868806840F40050196888609F480A
:10528000006840F400309D4908609C480830006880
:1052900040F4003099490831086000BFFF201968C8
:1052A000486200BF0120587700BF0020187700BF78
:1052B00000BF0FE770B504460D46002600BF207FF3
:1052C000012801D1022070BD0120207700BF0220FB
:1052D000607700BFCA202168486253202168486275
:1052E00000BFB5F5807F29D12068806820F48070E8
:1052F000216888602068806820F480502168886078
:10530000FCF766FF064612E0FCF762FF801BB0F573
:105310007A7F0CD900BFFF202168486200BF0320BC
:10532000607700BF0020207700BF0320CBE7206814
:10533000C06800F001000028E6D028E020688068FE
:1053400020F40070216888602068806820F4005094
:1053500021688860FCF73CFF064612E0FCF738FF46
:10536000801BB0F57A7F0CD900BFFF20216848620E
:1053700000BF0320607700BF0020207700BF03201C
:10538000A1E72068C068C0F340000028E6D000BF55
:10539000FF202168486200BF0120607700BF002025
:1053A000207700BF00BF8EE72DE9F04105460C468F
:1053B00016461F4600239846B6F5807F09D14FF464
:1053C000807060622868C3692868406CC0F30E086A
:1053D00008E04FF4007060622868036A2868806CF7
:1053E000C0F30E08C3F305402070C3F306206070BD
:1053F00003F07F00A07003F48000000CE070C4F89C
:105400000480C3F3056084F8200003F08040E0616D
:1054100003F0803060618FB92078FFF77DFC207049
:105420006078FFF779FC6070A078FFF775FCA070DA
:1054300094F82000FFF770FC84F820000020BDE8FD
:10544000F081704710B504462068C068C0F30020A2
:1054500078B12068806800F4805050B12046FCF795
:10546000A8FA2068C06800F0800060F4C07021686D
:10547000C8602068C068C0F3402078B120688068A8
:1054800000F4005050B1204600F00DFF2068C068C5
:1054900000F0800060F420702168C8604FF4003094
:1054A0001649143108600120607710BD70B50446BC
:1054B0000D460026FCF78CFE06460AE0681C40B14B
:1054C00025B1FCF785FE801BA84202D90320607736
:1054D00070BD2068C068C0F300200028EED02068AE
:1054E000C06800F0800060F4C0702168C8600120CE
:1054F00060770020ECE70146487F7047003C0140A0
:1055000030B50346002400BF187F012801D10220D6
:1055100030BD0120187700BF0220587718688068D6
:1055200040F6080520EA05040C4300BFCA201D68A8
:10553000686253201D68686200BF1868006C20F420
:1055400000301D6828641868006C10431D682864CA
:10555000186884601868806840F400601D68A8605E
:1055600000BFFF201D68686200BF0120587700BFA0
:105570000020187700BF00BFCAE730B503460024FB
:1055800000BF187F012801D1022030BD012018770B
:1055900000BF022058771868806840F6080520EAA6
:1055A00005040C4300BFCA201D68686253201D68B3
:1055B000686200BF186884601868006C20F40030CE
:1055C0001D6828641868006C10431D6828641868FA
:1055D000C06800F0800060F408601D68E86018682A
:1055E000806840F400601D68A8601868806840F416
:1055F00000401D68A860FC48006840F40010FA4DA7
:105600002860F9480830006840F40010F64D08356D
:10561000286000BFFF201D68686200BF0120587726
:1056200000BF0020187700BF00BFAEE70146002290
:1056300000BF087F012801D10220704701200877B0
:1056400000BF0220487700BFCA200B685862532071
:105650000B68586200BF0868806820F400400B683F
:1056600098600868806840F6080320EA030208682A
:10567000826000BFFF200B68586200BF012048779E
:1056800000BF0020087700BF00BFD6E72DE9F04734
:1056900006460C46154699460027B8463068006B0A
:1056A000D24900EA01073068406BD14900EA01089D
:1056B000C7F305402070C7F30620607007F07F0035
:1056C000A07007F48000000CE0703068806B6060B0
:1056D0000020E870C8F30420687008F03F00A8704C
:1056E000C8F342302870B9F1000F17D12078FFF7C6
:1056F00013FB20706078FFF70FFB6070A078FFF756
:105700000BFBA0706878FFF707FB6870A878FFF7BD
:1057100003FBA8702878FFF7FFFA28703068C0688C
:1057200000F0800060F408603168C8600020BDE8C7
:10573000F08710B50246002300BF107F012801D179
:10574000022010BD0120107700BF0220507788682A
:1057500010B1086840008860D1E9000420438C68DB
:105760002043CC6820430C6920434C6920438C695A
:105770002043CC6940EA0403086840EA400040F452
:10578000FF4040F4C03040F004041068006CA043B7
:10579000146820641068006C1843146820640120A9
:1057A000507700BF0020107700BF00BFC9E710B5D9
:1057B0000246002300BF107F012801D1022010BD46
:1057C0000120107700BF02205077886810B1086868
:1057D00040008860D1E9000420438C682043CC68F5
:1057E00020430C6920434C6920438C692043CC69D9
:1057F00040EA0403086840EA400040F4FF4040F4F7
:10580000C0341068006CA043146820641068006CF9
:105810001843146820641068006C40F00400146899
:1058200020640868012808D11068C06800F0800072
:1058300060F402501468E06007E01068C06800F08F
:10584000800060F481401468E0606748006840F4BC
:105850000010654C206064480830006840F4001077
:10586000614C083420600120507700BF0020107781
:1058700000BF00BFA3E7024600BF107F012801D18F
:10588000022070470120107700BF02205077106877
:10589000006C8843136818640120507700BF002013
:1058A000107700BF00BFECE770477047704710B536
:1058B00004462068C068C0F3C02078B120688068C2
:1058C00000F4004050B12046FFF7F0FF2068C068A8
:1058D00000F0800060F408602168C8602068C0683B
:1058E000C0F3403078B12068006C00F0040050B183
:1058F0002046FFF7DAFF2068C06800F0800060F4FF
:1059000002502168C8602068C068C0F3803078B158
:105910002068006C00F0040050B12046FFF7C4FF7F
:105920002068C06800F0800060F481402168C86091
:105930004FF400102C49143108600120607710BD2D
:1059400070B504460D460026FCF742FC06461BE0F7
:105950002068C068C0F3003058B12068C06800F00B
:10596000800060F484502168C860042060770120C2
:1059700070BD681C40B125B1FCF72AFC801BA84211
:1059800002D903206077F3E72068C068C0F3C02025
:105990000028DDD0012060770020E9E770B50446DB
:1059A0000D460026FCF714FC06460AE0681C40B1D0
:1059B00025B1FCF70DFC801BA84202D903206077BB
:1059C00070BD2068C068C0F340300028EED0206869
:1059D000C06800F0800060F402502168C8600120B7
:1059E00060770020ECE70000003C01407F7F7F00F3
:1059F0003FFFFF0070B504460D460026FCF7E8FBAC
:105A000006460AE0681C40B125B1FCF7E1FB801BAB
:105A1000A84202D90320607770BD2068C068C0F337
:105A200080300028EED02068C06800F0800060F46C
:105A300081402168C860012060770020ECE72DE9F3
:105A4000F04104460D461646002700BF207F01287E
:105A500002D10220BDE8F0810120207700BF0220A2
:105A6000607700BFCA2021684862532021684862DD
:105A700000BF2068806800F48060E0B1FCF7A8FBFC
:105A8000074612E0FCF7A4FBC01BB0F57A7F0CD9E7
:105A900000BFFF202168486200BF0320607700BF7D
:105AA0000020207700BF0320D4E72068C068C0F33F
:105AB00080000028E6D12068806820F4806021689A
:105AC0008860FCF785FB074612E0FCF781FBC01BF2
:105AD000B0F57A7F0CD900BFFF202168486200BF73
